{
  "contractName": "DEX",
  "abi": [
    {
      "inputs": [
        {
          "internalType": "address",
          "name": "token1Address",
          "type": "address"
        },
        {
          "internalType": "address",
          "name": "token2Address",
          "type": "address"
        }
      ],
      "stateMutability": "nonpayable",
      "type": "constructor"
    },
    {
      "anonymous": false,
      "inputs": [
        {
          "indexed": true,
          "internalType": "address",
          "name": "provider",
          "type": "address"
        },
        {
          "indexed": false,
          "internalType": "uint256",
          "name": "token1Amount",
          "type": "uint256"
        },
        {
          "indexed": false,
          "internalType": "uint256",
          "name": "token2Amount",
          "type": "uint256"
        }
      ],
      "name": "LiquidityProvided",
      "type": "event"
    },
    {
      "anonymous": false,
      "inputs": [
        {
          "indexed": true,
          "internalType": "address",
          "name": "provider",
          "type": "address"
        },
        {
          "indexed": false,
          "internalType": "uint256",
          "name": "token1Amount",
          "type": "uint256"
        },
        {
          "indexed": false,
          "internalType": "uint256",
          "name": "token2Amount",
          "type": "uint256"
        }
      ],
      "name": "LiquidityRemoved",
      "type": "event"
    },
    {
      "anonymous": false,
      "inputs": [
        {
          "indexed": true,
          "internalType": "address",
          "name": "buyer",
          "type": "address"
        },
        {
          "indexed": false,
          "internalType": "uint256",
          "name": "token2Sold",
          "type": "uint256"
        },
        {
          "indexed": false,
          "internalType": "uint256",
          "name": "token1Bought",
          "type": "uint256"
        }
      ],
      "name": "Token1Purchase",
      "type": "event"
    },
    {
      "anonymous": false,
      "inputs": [
        {
          "indexed": true,
          "internalType": "address",
          "name": "buyer",
          "type": "address"
        },
        {
          "indexed": false,
          "internalType": "uint256",
          "name": "token1Sold",
          "type": "uint256"
        },
        {
          "indexed": false,
          "internalType": "uint256",
          "name": "token2Bought",
          "type": "uint256"
        }
      ],
      "name": "Token2Purchase",
      "type": "event"
    },
    {
      "inputs": [
        {
          "internalType": "address",
          "name": "",
          "type": "address"
        }
      ],
      "name": "liquidity",
      "outputs": [
        {
          "internalType": "uint256",
          "name": "",
          "type": "uint256"
        }
      ],
      "stateMutability": "view",
      "type": "function",
      "constant": true
    },
    {
      "inputs": [],
      "name": "myToken1",
      "outputs": [
        {
          "internalType": "contract IERC20",
          "name": "",
          "type": "address"
        }
      ],
      "stateMutability": "view",
      "type": "function",
      "constant": true
    },
    {
      "inputs": [],
      "name": "myToken2",
      "outputs": [
        {
          "internalType": "contract IERC20",
          "name": "",
          "type": "address"
        }
      ],
      "stateMutability": "view",
      "type": "function",
      "constant": true
    },
    {
      "inputs": [],
      "name": "totalLiquidity",
      "outputs": [
        {
          "internalType": "uint256",
          "name": "",
          "type": "uint256"
        }
      ],
      "stateMutability": "view",
      "type": "function",
      "constant": true
    },
    {
      "inputs": [
        {
          "internalType": "uint256",
          "name": "token1Amount",
          "type": "uint256"
        },
        {
          "internalType": "uint256",
          "name": "token2Amount",
          "type": "uint256"
        }
      ],
      "name": "initPool",
      "outputs": [],
      "stateMutability": "nonpayable",
      "type": "function"
    },
    {
      "inputs": [
        {
          "internalType": "uint256",
          "name": "inputAmount",
          "type": "uint256"
        },
        {
          "internalType": "uint256",
          "name": "inputReserve",
          "type": "uint256"
        },
        {
          "internalType": "uint256",
          "name": "outputReserve",
          "type": "uint256"
        }
      ],
      "name": "getPrice",
      "outputs": [
        {
          "internalType": "uint256",
          "name": "",
          "type": "uint256"
        }
      ],
      "stateMutability": "pure",
      "type": "function",
      "constant": true
    },
    {
      "inputs": [
        {
          "internalType": "uint256",
          "name": "token1Sold",
          "type": "uint256"
        }
      ],
      "name": "token1ToToken2Swap",
      "outputs": [],
      "stateMutability": "nonpayable",
      "type": "function"
    },
    {
      "inputs": [
        {
          "internalType": "uint256",
          "name": "token2Sold",
          "type": "uint256"
        }
      ],
      "name": "token2ToToken1Swap",
      "outputs": [],
      "stateMutability": "nonpayable",
      "type": "function"
    },
    {
      "inputs": [
        {
          "internalType": "uint256",
          "name": "token1Amount",
          "type": "uint256"
        },
        {
          "internalType": "uint256",
          "name": "token2Amount",
          "type": "uint256"
        }
      ],
      "name": "provideLiquidity",
      "outputs": [],
      "stateMutability": "nonpayable",
      "type": "function"
    },
    {
      "inputs": [
        {
          "internalType": "uint256",
          "name": "token1Amount",
          "type": "uint256"
        }
      ],
      "name": "provideLiquidityWithToken1",
      "outputs": [],
      "stateMutability": "nonpayable",
      "type": "function"
    },
    {
      "inputs": [
        {
          "internalType": "uint256",
          "name": "token2Amount",
          "type": "uint256"
        }
      ],
      "name": "provideLiquidityWithToken2",
      "outputs": [],
      "stateMutability": "nonpayable",
      "type": "function"
    },
    {
      "inputs": [
        {
          "internalType": "uint256",
          "name": "liquidityAmount",
          "type": "uint256"
        }
      ],
      "name": "removeLiquidity",
      "outputs": [],
      "stateMutability": "nonpayable",
      "type": "function"
    },
    {
      "inputs": [
        {
          "internalType": "address",
          "name": "provider",
          "type": "address"
        }
      ],
      "name": "getLiquidity",
      "outputs": [
        {
          "internalType": "uint256",
          "name": "",
          "type": "uint256"
        }
      ],
      "stateMutability": "view",
      "type": "function",
      "constant": true
    },
    {
      "inputs": [],
      "name": "getToken1Balance",
      "outputs": [
        {
          "internalType": "uint256",
          "name": "",
          "type": "uint256"
        }
      ],
      "stateMutability": "view",
      "type": "function",
      "constant": true
    },
    {
      "inputs": [],
      "name": "getToken2Balance",
      "outputs": [
        {
          "internalType": "uint256",
          "name": "",
          "type": "uint256"
        }
      ],
      "stateMutability": "view",
      "type": "function",
      "constant": true
    }
  ],
  "bytecode": "0x60806040523480156200001157600080fd5b5060405162002a5138038062002a5183398181016040528101906200003791906200012a565b816000806101000a81548173ffffffffffffffffffffffffffffffffffffffff021916908373ffffffffffffffffffffffffffffffffffffffff16021790555080600160006101000a81548173ffffffffffffffffffffffffffffffffffffffff021916908373ffffffffffffffffffffffffffffffffffffffff160217905550505062000171565b600080fd5b600073ffffffffffffffffffffffffffffffffffffffff82169050919050565b6000620000f282620000c5565b9050919050565b6200010481620000e5565b81146200011057600080fd5b50565b6000815190506200012481620000f9565b92915050565b60008060408385031215620001445762000143620000c0565b5b6000620001548582860162000113565b9250506020620001678582860162000113565b9150509250929050565b6128d080620001816000396000f3fe608060405234801561001057600080fd5b50600436106100f55760003560e01c80639c8f9f2311610097578063df22759011610066578063df22759014610272578063e01300171461028e578063e4ce9b94146102aa578063eb1efe0a146102c6576100f5565b80639c8f9f23146101da5780639e1b0045146101f6578063a747b93b14610212578063b8c876b114610242576100f5565b806375d9a670116100d357806375d9a670146101665780637a16af7f146101825780637f07de741461019e578063801ea6ec146101bc576100f5565b806315770f92146100fa5780633cc4ecab146101185780635153786b14610148575b600080fd5b6101026102e4565b60405161010f91906120f1565b60405180910390f35b610132600480360381019061012d919061213d565b6102ea565b60405161013f91906120f1565b60405180910390f35b61015061032c565b60405161015d91906120f1565b60405180910390f35b610180600480360381019061017b9190612190565b6103ce565b005b61019c600480360381019061019791906121bd565b610812565b005b6101a6610cf6565b6040516101b3919061227c565b60405180910390f35b6101c4610d1c565b6040516101d191906120f1565b60405180910390f35b6101f460048036038101906101ef9190612190565b610dbf565b005b610210600480360381019061020b91906121bd565b611298565b005b61022c600480360381019061022791906122d5565b611500565b60405161023991906120f1565b60405180910390f35b61025c600480360381019061025791906122d5565b611549565b60405161026991906120f1565b60405180910390f35b61028c60048036038101906102879190612190565b611561565b005b6102a860048036038101906102a39190612190565b6118bc565b005b6102c460048036038101906102bf9190612190565b611d00565b005b6102ce61205c565b6040516102db919061227c565b60405180910390f35b60025481565b6000610323610302858561208090919063ffffffff16565b610315848761209690919063ffffffff16565b6120ac90919063ffffffff16565b90509392505050565b60008060009054906101000a900473ffffffffffffffffffffffffffffffffffffffff1673ffffffffffffffffffffffffffffffffffffffff166370a08231306040518263ffffffff1660e01b81526004016103889190612311565b602060405180830381865afa1580156103a5573d6000803e3d6000fd5b505050506040513d601f19601f820116820180604052508101906103c99190612341565b905090565b60008060009054906101000a900473ffffffffffffffffffffffffffffffffffffffff1673ffffffffffffffffffffffffffffffffffffffff166370a08231306040518263ffffffff1660e01b815260040161042a9190612311565b602060405180830381865afa158015610447573d6000803e3d6000fd5b505050506040513d601f19601f8201168201806040525081019061046b9190612341565b90506000600160009054906101000a900473ffffffffffffffffffffffffffffffffffffffff1673ffffffffffffffffffffffffffffffffffffffff166370a08231306040518263ffffffff1660e01b81526004016104ca9190612311565b602060405180830381865afa1580156104e7573d6000803e3d6000fd5b505050506040513d601f19601f8201168201806040525081019061050b9190612341565b905060008211801561051d5750600081115b61055c576040517f08c379a0000000000000000000000000000000000000000000000000000000008152600401610553906123cb565b60405180910390fd5b600081838561056b919061241a565b610575919061248b565b905060008054906101000a900473ffffffffffffffffffffffffffffffffffffffff1673ffffffffffffffffffffffffffffffffffffffff166323b872dd3330846040518463ffffffff1660e01b81526004016105d4939291906124bc565b6020604051808303816000875af11580156105f3573d6000803e3d6000fd5b505050506040513d601f19601f82011682018060405250810190610617919061252b565b610656576040517f08c379a000000000000000000000000000000000000000000000000000000000815260040161064d906125a4565b60405180910390fd5b600160009054906101000a900473ffffffffffffffffffffffffffffffffffffffff1673ffffffffffffffffffffffffffffffffffffffff166323b872dd3330876040518463ffffffff1660e01b81526004016106b5939291906124bc565b6020604051808303816000875af11580156106d4573d6000803e3d6000fd5b505050506040513d601f19601f820116820180604052508101906106f8919061252b565b610737576040517f08c379a000000000000000000000000000000000000000000000000000000000815260040161072e90612610565b60405180910390fd5b83816107439190612630565b600360003373ffffffffffffffffffffffffffffffffffffffff1673ffffffffffffffffffffffffffffffffffffffff16815260200190815260200160002060008282546107919190612630565b9250508190555083816107a49190612630565b600260008282546107b59190612630565b925050819055503373ffffffffffffffffffffffffffffffffffffffff167f4da600077ef1c533c6fc47d886b74f8eb10195c987edfc00c907a2e184a027948286604051610804929190612664565b60405180910390a250505050565b6000821180156108225750600081115b610861576040517f08c379a0000000000000000000000000000000000000000000000000000000008152600401610858906126d9565b60405180910390fd5b60008060009054906101000a900473ffffffffffffffffffffffffffffffffffffffff1673ffffffffffffffffffffffffffffffffffffffff166370a08231306040518263ffffffff1660e01b81526004016108bd9190612311565b602060405180830381865afa1580156108da573d6000803e3d6000fd5b505050506040513d601f19601f820116820180604052508101906108fe9190612341565b90506000600160009054906101000a900473ffffffffffffffffffffffffffffffffffffffff1673ffffffffffffffffffffffffffffffffffffffff166370a08231306040518263ffffffff1660e01b815260040161095d9190612311565b602060405180830381865afa15801561097a573d6000803e3d6000fd5b505050506040513d601f19601f8201168201806040525081019061099e9190612341565b905060006109c7836109b9848861209690919063ffffffff16565b6120ac90919063ffffffff16565b9050808414610a0b576040517f08c379a0000000000000000000000000000000000000000000000000000000008152600401610a0290612745565b60405180910390fd5b60008054906101000a900473ffffffffffffffffffffffffffffffffffffffff1673ffffffffffffffffffffffffffffffffffffffff166323b872dd3330886040518463ffffffff1660e01b8152600401610a68939291906124bc565b6020604051808303816000875af1158015610a87573d6000803e3d6000fd5b505050506040513d601f19601f82011682018060405250810190610aab919061252b565b610aea576040517f08c379a0000000000000000000000000000000000000000000000000000000008152600401610ae1906125a4565b60405180910390fd5b600160009054906101000a900473ffffffffffffffffffffffffffffffffffffffff1673ffffffffffffffffffffffffffffffffffffffff166323b872dd3330876040518463ffffffff1660e01b8152600401610b49939291906124bc565b6020604051808303816000875af1158015610b68573d6000803e3d6000fd5b505050506040513d601f19601f82011682018060405250810190610b8c919061252b565b610bcb576040517f08c379a0000000000000000000000000000000000000000000000000000000008152600401610bc290612610565b60405180910390fd5b610c2f610be1858761208090919063ffffffff16565b600360003373ffffffffffffffffffffffffffffffffffffffff1673ffffffffffffffffffffffffffffffffffffffff1681526020019081526020016000205461208090919063ffffffff16565b600360003373ffffffffffffffffffffffffffffffffffffffff1673ffffffffffffffffffffffffffffffffffffffff16815260200190815260200160002081905550610c99610c88858761208090919063ffffffff16565b60025461208090919063ffffffff16565b6002819055503373ffffffffffffffffffffffffffffffffffffffff167f4da600077ef1c533c6fc47d886b74f8eb10195c987edfc00c907a2e184a027948686604051610ce7929190612664565b60405180910390a25050505050565b600160009054906101000a900473ffffffffffffffffffffffffffffffffffffffff1681565b6000600160009054906101000a900473ffffffffffffffffffffffffffffffffffffffff1673ffffffffffffffffffffffffffffffffffffffff166370a08231306040518263ffffffff1660e01b8152600401610d799190612311565b602060405180830381865afa158015610d96573d6000803e3d6000fd5b505050506040513d601f19601f82011682018060405250810190610dba9190612341565b905090565b600081118015610e0e5750600360003373ffffffffffffffffffffffffffffffffffffffff1673ffffffffffffffffffffffffffffffffffffffff168152602001908152602001600020548111155b610e4d576040517f08c379a0000000000000000000000000000000000000000000000000000000008152600401610e44906127b1565b60405180910390fd5b6000610f0f600254610f0160008054906101000a900473ffffffffffffffffffffffffffffffffffffffff1673ffffffffffffffffffffffffffffffffffffffff166370a08231306040518263ffffffff1660e01b8152600401610eb19190612311565b602060405180830381865afa158015610ece573d6000803e3d6000fd5b505050506040513d601f19601f82011682018060405250810190610ef29190612341565b8561209690919063ffffffff16565b6120ac90919063ffffffff16565b90506000610fd5600254610fc7600160009054906101000a900473ffffffffffffffffffffffffffffffffffffffff1673ffffffffffffffffffffffffffffffffffffffff166370a08231306040518263ffffffff1660e01b8152600401610f779190612311565b602060405180830381865afa158015610f94573d6000803e3d6000fd5b505050506040513d601f19601f82011682018060405250810190610fb89190612341565b8661209690919063ffffffff16565b6120ac90919063ffffffff16565b905061102983600360003373ffffffffffffffffffffffffffffffffffffffff1673ffffffffffffffffffffffffffffffffffffffff168152602001908152602001600020546120c290919063ffffffff16565b600360003373ffffffffffffffffffffffffffffffffffffffff1673ffffffffffffffffffffffffffffffffffffffff16815260200190815260200160002081905550611081836002546120c290919063ffffffff16565b60028190555060008054906101000a900473ffffffffffffffffffffffffffffffffffffffff1673ffffffffffffffffffffffffffffffffffffffff1663a9059cbb33846040518363ffffffff1660e01b81526004016110e29291906127d1565b6020604051808303816000875af1158015611101573d6000803e3d6000fd5b505050506040513d601f19601f82011682018060405250810190611125919061252b565b611164576040517f08c379a000000000000000000000000000000000000000000000000000000000815260040161115b906125a4565b60405180910390fd5b600160009054906101000a900473ffffffffffffffffffffffffffffffffffffffff1673ffffffffffffffffffffffffffffffffffffffff1663a9059cbb33836040518363ffffffff1660e01b81526004016111c19291906127d1565b6020604051808303816000875af11580156111e0573d6000803e3d6000fd5b505050506040513d601f19601f82011682018060405250810190611204919061252b565b611243576040517f08c379a000000000000000000000000000000000000000000000000000000000815260040161123a90612610565b60405180910390fd5b3373ffffffffffffffffffffffffffffffffffffffff167f96cd817c6329656790ef8fba7675405193677d39619571282f5e21f3a98cd059838360405161128b929190612664565b60405180910390a2505050565b6000600254146112dd576040517f08c379a00000000000000000000000000000000000000000000000000000000081526004016112d490612846565b60405180910390fd5b6112f0818361208090919063ffffffff16565b600281905550600254600360003373ffffffffffffffffffffffffffffffffffffffff1673ffffffffffffffffffffffffffffffffffffffff1681526020019081526020016000208190555060008054906101000a900473ffffffffffffffffffffffffffffffffffffffff1673ffffffffffffffffffffffffffffffffffffffff166323b872dd3330856040518463ffffffff1660e01b8152600401611399939291906124bc565b6020604051808303816000875af11580156113b8573d6000803e3d6000fd5b505050506040513d601f19601f820116820180604052508101906113dc919061252b565b61141b576040517f08c379a0000000000000000000000000000000000000000000000000000000008152600401611412906125a4565b60405180910390fd5b600160009054906101000a900473ffffffffffffffffffffffffffffffffffffffff1673ffffffffffffffffffffffffffffffffffffffff166323b872dd3330846040518463ffffffff1660e01b815260040161147a939291906124bc565b6020604051808303816000875af1158015611499573d6000803e3d6000fd5b505050506040513d601f19601f820116820180604052508101906114bd919061252b565b6114fc576040517f08c379a00000000000000000000000000000000000000000000000000000000081526004016114f390612610565b60405180910390fd5b5050565b6000600360008373ffffffffffffffffffffffffffffffffffffffff1673ffffffffffffffffffffffffffffffffffffffff168152602001908152602001600020549050919050565b60036020528060005260406000206000915090505481565b6000600160009054906101000a900473ffffffffffffffffffffffffffffffffffffffff1673ffffffffffffffffffffffffffffffffffffffff166370a08231306040518263ffffffff1660e01b81526004016115be9190612311565b602060405180830381865afa1580156115db573d6000803e3d6000fd5b505050506040513d601f19601f820116820180604052508101906115ff9190612341565b905060006116a78360008054906101000a900473ffffffffffffffffffffffffffffffffffffffff1673ffffffffffffffffffffffffffffffffffffffff166370a08231306040518263ffffffff1660e01b81526004016116609190612311565b602060405180830381865afa15801561167d573d6000803e3d6000fd5b505050506040513d601f19601f820116820180604052508101906116a19190612341565b846102ea565b905060008054906101000a900473ffffffffffffffffffffffffffffffffffffffff1673ffffffffffffffffffffffffffffffffffffffff166323b872dd3330866040518463ffffffff1660e01b8152600401611706939291906124bc565b6020604051808303816000875af1158015611725573d6000803e3d6000fd5b505050506040513d601f19601f82011682018060405250810190611749919061252b565b611788576040517f08c379a000000000000000000000000000000000000000000000000000000000815260040161177f906125a4565b60405180910390fd5b600160009054906101000a900473ffffffffffffffffffffffffffffffffffffffff1673ffffffffffffffffffffffffffffffffffffffff1663a9059cbb33836040518363ffffffff1660e01b81526004016117e59291906127d1565b6020604051808303816000875af1158015611804573d6000803e3d6000fd5b505050506040513d601f19601f82011682018060405250810190611828919061252b565b611867576040517f08c379a000000000000000000000000000000000000000000000000000000000815260040161185e90612610565b60405180910390fd5b3373ffffffffffffffffffffffffffffffffffffffff167fbfb7768e9221bdf45ed4aa13edd6b6d94a1307817b74212c4056e1f81a0760de84836040516118af929190612664565b60405180910390a2505050565b60008060009054906101000a900473ffffffffffffffffffffffffffffffffffffffff1673ffffffffffffffffffffffffffffffffffffffff166370a08231306040518263ffffffff1660e01b81526004016119189190612311565b602060405180830381865afa158015611935573d6000803e3d6000fd5b505050506040513d601f19601f820116820180604052508101906119599190612341565b90506000600160009054906101000a900473ffffffffffffffffffffffffffffffffffffffff1673ffffffffffffffffffffffffffffffffffffffff166370a08231306040518263ffffffff1660e01b81526004016119b89190612311565b602060405180830381865afa1580156119d5573d6000803e3d6000fd5b505050506040513d601f19601f820116820180604052508101906119f99190612341565b9050600082118015611a0b5750600081115b611a4a576040517f08c379a0000000000000000000000000000000000000000000000000000000008152600401611a41906123cb565b60405180910390fd5b6000828285611a59919061241a565b611a63919061248b565b905060008054906101000a900473ffffffffffffffffffffffffffffffffffffffff1673ffffffffffffffffffffffffffffffffffffffff166323b872dd3330876040518463ffffffff1660e01b8152600401611ac2939291906124bc565b6020604051808303816000875af1158015611ae1573d6000803e3d6000fd5b505050506040513d601f19601f82011682018060405250810190611b05919061252b565b611b44576040517f08c379a0000000000000000000000000000000000000000000000000000000008152600401611b3b906125a4565b60405180910390fd5b600160009054906101000a900473ffffffffffffffffffffffffffffffffffffffff1673ffffffffffffffffffffffffffffffffffffffff166323b872dd3330846040518463ffffffff1660e01b8152600401611ba3939291906124bc565b6020604051808303816000875af1158015611bc2573d6000803e3d6000fd5b505050506040513d601f19601f82011682018060405250810190611be6919061252b565b611c25576040517f08c379a0000000000000000000000000000000000000000000000000000000008152600401611c1c90612610565b60405180910390fd5b8084611c319190612630565b600360003373ffffffffffffffffffffffffffffffffffffffff1673ffffffffffffffffffffffffffffffffffffffff1681526020019081526020016000206000828254611c7f9190612630565b925050819055508084611c929190612630565b60026000828254611ca39190612630565b925050819055503373ffffffffffffffffffffffffffffffffffffffff167f4da600077ef1c533c6fc47d886b74f8eb10195c987edfc00c907a2e184a027948583604051611cf2929190612664565b60405180910390a250505050565b60008060009054906101000a900473ffffffffffffffffffffffffffffffffffffffff1673ffffffffffffffffffffffffffffffffffffffff166370a08231306040518263ffffffff1660e01b8152600401611d5c9190612311565b602060405180830381865afa158015611d79573d6000803e3d6000fd5b505050506040513d601f19601f82011682018060405250810190611d9d9190612341565b90506000611e4783600160009054906101000a900473ffffffffffffffffffffffffffffffffffffffff1673ffffffffffffffffffffffffffffffffffffffff166370a08231306040518263ffffffff1660e01b8152600401611e009190612311565b602060405180830381865afa158015611e1d573d6000803e3d6000fd5b505050506040513d601f19601f82011682018060405250810190611e419190612341565b846102ea565b9050600160009054906101000a900473ffffffffffffffffffffffffffffffffffffffff1673ffffffffffffffffffffffffffffffffffffffff166323b872dd3330866040518463ffffffff1660e01b8152600401611ea8939291906124bc565b6020604051808303816000875af1158015611ec7573d6000803e3d6000fd5b505050506040513d601f19601f82011682018060405250810190611eeb919061252b565b611f2a576040517f08c379a0000000000000000000000000000000000000000000000000000000008152600401611f2190612610565b60405180910390fd5b60008054906101000a900473ffffffffffffffffffffffffffffffffffffffff1673ffffffffffffffffffffffffffffffffffffffff1663a9059cbb33836040518363ffffffff1660e01b8152600401611f859291906127d1565b6020604051808303816000875af1158015611fa4573d6000803e3d6000fd5b505050506040513d601f19601f82011682018060405250810190611fc8919061252b565b612007576040517f08c379a0000000000000000000000000000000000000000000000000000000008152600401611ffe906125a4565b60405180910390fd5b3373ffffffffffffffffffffffffffffffffffffffff167f636b441904cc4fae568410dec76a8e589caead58bc25415e199be8447ec13aa1848360405161204f929190612664565b60405180910390a2505050565b60008054906101000a900473ffffffffffffffffffffffffffffffffffffffff1681565b6000818361208e9190612630565b905092915050565b600081836120a4919061241a565b905092915050565b600081836120ba919061248b565b905092915050565b600081836120d09190612866565b905092915050565b6000819050919050565b6120eb816120d8565b82525050565b600060208201905061210660008301846120e2565b92915050565b600080fd5b61211a816120d8565b811461212557600080fd5b50565b60008135905061213781612111565b92915050565b6000806000606084860312156121565761215561210c565b5b600061216486828701612128565b935050602061217586828701612128565b925050604061218686828701612128565b9150509250925092565b6000602082840312156121a6576121a561210c565b5b60006121b484828501612128565b91505092915050565b600080604083850312156121d4576121d361210c565b5b60006121e285828601612128565b92505060206121f385828601612128565b9150509250929050565b600073ffffffffffffffffffffffffffffffffffffffff82169050919050565b6000819050919050565b600061224261223d612238846121fd565b61221d565b6121fd565b9050919050565b600061225482612227565b9050919050565b600061226682612249565b9050919050565b6122768161225b565b82525050565b6000602082019050612291600083018461226d565b92915050565b60006122a2826121fd565b9050919050565b6122b281612297565b81146122bd57600080fd5b50565b6000813590506122cf816122a9565b92915050565b6000602082840312156122eb576122ea61210c565b5b60006122f9848285016122c0565b91505092915050565b61230b81612297565b82525050565b60006020820190506123266000830184612302565b92915050565b60008151905061233b81612111565b92915050565b6000602082840312156123575761235661210c565b5b60006123658482850161232c565b91505092915050565b600082825260208201905092915050565b7f506f6f6c206e6f7420696e697469616c697a6564000000000000000000000000600082015250565b60006123b560148361236e565b91506123c08261237f565b602082019050919050565b600060208201905081810360008301526123e4816123a8565b9050919050565b7f4e487b7100000000000000000000000000000000000000000000000000000000600052601160045260246000fd5b6000612425826120d8565b9150612430836120d8565b925082820261243e816120d8565b91508282048414831517612455576124546123eb565b5b5092915050565b7f4e487b7100000000000000000000000000000000000000000000000000000000600052601260045260246000fd5b6000612496826120d8565b91506124a1836120d8565b9250826124b1576124b061245c565b5b828204905092915050565b60006060820190506124d16000830186612302565b6124de6020830185612302565b6124eb60408301846120e2565b949350505050565b60008115159050919050565b612508816124f3565b811461251357600080fd5b50565b600081519050612525816124ff565b92915050565b6000602082840312156125415761254061210c565b5b600061254f84828501612516565b91505092915050565b7f546f6b656e31207472616e73666572206661696c656400000000000000000000600082015250565b600061258e60168361236e565b915061259982612558565b602082019050919050565b600060208201905081810360008301526125bd81612581565b9050919050565b7f546f6b656e32207472616e73666572206661696c656400000000000000000000600082015250565b60006125fa60168361236e565b9150612605826125c4565b602082019050919050565b60006020820190508181036000830152612629816125ed565b9050919050565b600061263b826120d8565b9150612646836120d8565b925082820190508082111561265e5761265d6123eb565b5b92915050565b600060408201905061267960008301856120e2565b61268660208301846120e2565b9392505050565b7f496e76616c696420616d6f756e74730000000000000000000000000000000000600082015250565b60006126c3600f8361236e565b91506126ce8261268d565b602082019050919050565b600060208201905081810360008301526126f2816126b6565b9050919050565b7f496e636f727265637420746f6b656e3220616d6f756e74000000000000000000600082015250565b600061272f60178361236e565b915061273a826126f9565b602082019050919050565b6000602082019050818103600083015261275e81612722565b9050919050565b7f496e76616c6964206c697175696469747920616d6f756e740000000000000000600082015250565b600061279b60188361236e565b91506127a682612765565b602082019050919050565b600060208201905081810360008301526127ca8161278e565b9050919050565b60006040820190506127e66000830185612302565b6127f360208301846120e2565b9392505050565b7f506f6f6c20616c726561647920696e697469616c697a65640000000000000000600082015250565b600061283060188361236e565b915061283b826127fa565b602082019050919050565b6000602082019050818103600083015261285f81612823565b9050919050565b6000612871826120d8565b915061287c836120d8565b9250828203905081811115612894576128936123eb565b5b9291505056fea2646970667358221220b5e515ea618043aadb186ce8e718d5c2806a7b66d33a5ad23d6131ab54f1cbd264736f6c63430008130033",
  "immutableReferences": {},
  "source": "// SPDX-License-Identifier: MIT\r\npragma solidity ^0.8.19;\r\n\r\nimport \"@openzeppelin/contracts/token/ERC20/IERC20.sol\";\r\nimport \"@openzeppelin/contracts/utils/math/SafeMath.sol\";\r\n\r\ncontract DEX {\r\n    using SafeMath for uint256;\r\n\r\n    IERC20 public myToken1;\r\n    IERC20 public myToken2;\r\n    \r\n    uint256 public totalLiquidity;\r\n    mapping(address => uint256) public liquidity;\r\n\r\n    event Token1Purchase(address indexed buyer, uint256 token2Sold, uint256 token1Bought);\r\n    event Token2Purchase(address indexed buyer, uint256 token1Sold, uint256 token2Bought);\r\n    event LiquidityProvided(address indexed provider, uint256 token1Amount, uint256 token2Amount);\r\n    event LiquidityRemoved(address indexed provider, uint256 token1Amount, uint256 token2Amount);\r\n\r\n    constructor(address token1Address, address token2Address) {\r\n        myToken1 = IERC20(token1Address);\r\n        myToken2 = IERC20(token2Address);\r\n    }\r\n\r\n    // Khi to pool vi lng token1 v token2 ban u\r\n    function initPool(uint256 token1Amount, uint256 token2Amount) public {\r\n        require(totalLiquidity == 0, \"Pool already initialized\");\r\n        \r\n        totalLiquidity = token1Amount.add(token2Amount);\r\n        liquidity[msg.sender] = totalLiquidity;\r\n        \r\n        require(myToken1.transferFrom(msg.sender, address(this), token1Amount), \"Token1 transfer failed\");\r\n        require(myToken2.transferFrom(msg.sender, address(this), token2Amount), \"Token2 transfer failed\");\r\n    }\r\n\r\n    // Hm tnh gi theo cng thc AMM\r\n    function getPrice(uint256 inputAmount, uint256 inputReserve, uint256 outputReserve) public pure returns (uint256) {\r\n        return (inputAmount.mul(outputReserve)).div(inputReserve.add(inputAmount));\r\n    }\r\n\r\n    // Giao dch t token1 sang token2\r\n    function token1ToToken2Swap(uint256 token1Sold) public {\r\n        uint256 token2Reserve = myToken2.balanceOf(address(this));\r\n        uint256 token2Bought = getPrice(token1Sold, myToken1.balanceOf(address(this)), token2Reserve);\r\n        require(myToken1.transferFrom(msg.sender, address(this), token1Sold), \"Token1 transfer failed\");\r\n        require(myToken2.transfer(msg.sender, token2Bought), \"Token2 transfer failed\");\r\n        emit Token1Purchase(msg.sender, token1Sold, token2Bought);\r\n    }\r\n\r\n    // Giao dch t token2 sang token1\r\n    function token2ToToken1Swap(uint256 token2Sold) public {\r\n        uint256 token1Reserve = myToken1.balanceOf(address(this));\r\n        uint256 token1Bought = getPrice(token2Sold, myToken2.balanceOf(address(this)), token1Reserve);\r\n        require(myToken2.transferFrom(msg.sender, address(this), token2Sold), \"Token2 transfer failed\");\r\n        require(myToken1.transfer(msg.sender, token1Bought), \"Token1 transfer failed\");\r\n        emit Token2Purchase(msg.sender, token2Sold, token1Bought);\r\n    }\r\n\r\n    // Cung cp thanh khon cho pool\r\n    function provideLiquidity(uint256 token1Amount, uint256 token2Amount) public {\r\n        require(token1Amount > 0 && token2Amount > 0, \"Invalid amounts\");\r\n\r\n        uint256 token1Reserve = myToken1.balanceOf(address(this));\r\n        uint256 token2Reserve = myToken2.balanceOf(address(this));\r\n\r\n        uint256 token2AmountRequired = (token1Amount.mul(token2Reserve)).div(token1Reserve);\r\n        require(token2Amount == token2AmountRequired, \"Incorrect token2 amount\");\r\n\r\n        require(myToken1.transferFrom(msg.sender, address(this), token1Amount), \"Token1 transfer failed\");\r\n        require(myToken2.transferFrom(msg.sender, address(this), token2Amount), \"Token2 transfer failed\");\r\n\r\n        liquidity[msg.sender] = liquidity[msg.sender].add(token1Amount.add(token2Amount));\r\n        totalLiquidity = totalLiquidity.add(token1Amount.add(token2Amount));\r\n\r\n        emit LiquidityProvided(msg.sender, token1Amount, token2Amount);\r\n    }\r\n\r\n    // Ngi dng ch nhp token1Amount, DEX t tnh token2Amount\r\n    function provideLiquidityWithToken1(uint256 token1Amount) public {\r\n        uint256 token1Reserve = myToken1.balanceOf(address(this));\r\n        uint256 token2Reserve = myToken2.balanceOf(address(this));\r\n\r\n        require(token1Reserve > 0 && token2Reserve > 0, \"Pool not initialized\");\r\n\r\n        uint256 token2AmountRequired = (token1Amount * token2Reserve) / token1Reserve;\r\n\r\n        require(myToken1.transferFrom(msg.sender, address(this), token1Amount), \"Token1 transfer failed\");\r\n        require(myToken2.transferFrom(msg.sender, address(this), token2AmountRequired), \"Token2 transfer failed\");\r\n\r\n        liquidity[msg.sender] += token1Amount + token2AmountRequired;\r\n        totalLiquidity += token1Amount + token2AmountRequired;\r\n\r\n        emit LiquidityProvided(msg.sender, token1Amount, token2AmountRequired);\r\n    }\r\n\r\n    // Ngi dng ch nhp token2Amount, DEX t tnh token1Amount\r\n    function provideLiquidityWithToken2(uint256 token2Amount) public {\r\n        uint256 token1Reserve = myToken1.balanceOf(address(this));\r\n        uint256 token2Reserve = myToken2.balanceOf(address(this));\r\n\r\n        require(token1Reserve > 0 && token2Reserve > 0, \"Pool not initialized\");\r\n\r\n        uint256 token1AmountRequired = (token2Amount * token1Reserve) / token2Reserve;\r\n\r\n        require(myToken1.transferFrom(msg.sender, address(this), token1AmountRequired), \"Token1 transfer failed\");\r\n        require(myToken2.transferFrom(msg.sender, address(this), token2Amount), \"Token2 transfer failed\");\r\n\r\n        liquidity[msg.sender] += token1AmountRequired + token2Amount;\r\n        totalLiquidity += token1AmountRequired + token2Amount;\r\n\r\n        emit LiquidityProvided(msg.sender, token1AmountRequired, token2Amount);\r\n    }\r\n\r\n\r\n    // Rt thanh khon t pool\r\n    function removeLiquidity(uint256 liquidityAmount) public {\r\n        require(liquidityAmount > 0 && liquidityAmount <= liquidity[msg.sender], \"Invalid liquidity amount\");\r\n\r\n        uint256 token1Amount = (liquidityAmount.mul(myToken1.balanceOf(address(this)))).div(totalLiquidity);\r\n        uint256 token2Amount = (liquidityAmount.mul(myToken2.balanceOf(address(this)))).div(totalLiquidity);\r\n\r\n        liquidity[msg.sender] = liquidity[msg.sender].sub(liquidityAmount);\r\n        totalLiquidity = totalLiquidity.sub(liquidityAmount);\r\n\r\n        require(myToken1.transfer(msg.sender, token1Amount), \"Token1 transfer failed\");\r\n        require(myToken2.transfer(msg.sender, token2Amount), \"Token2 transfer failed\");\r\n\r\n        emit LiquidityRemoved(msg.sender, token1Amount, token2Amount);\r\n    }\r\n\r\n    // Kim tra s d thanh khon ca ngi dng\r\n    function getLiquidity(address provider) public view returns (uint256) {\r\n        return liquidity[provider];\r\n    }\r\n\r\n    // Kim tra s d ca token1 v token2 trong hp ng\r\n    function getToken1Balance() public view returns (uint256) {\r\n        return myToken1.balanceOf(address(this));\r\n    }\r\n\r\n    function getToken2Balance() public view returns (uint256) {\r\n        return myToken2.balanceOf(address(this));\r\n    }\r\n}\r\n",
  "sourcePath": "C:\\Ethereum\\MyToken\\contracts\\DEX.sol",
  "compiler": {
    "name": "solc",
    "version": "0.8.19+commit.7dd6d404.Emscripten.clang"
  },
  "schemaVersion": "3.4.16",
  "updatedAt": "2025-02-13T15:10:56.392Z",
  "networkType": "ethereum",
  "devdoc": {
    "kind": "dev",
    "methods": {},
    "version": 1
  },
  "userdoc": {
    "kind": "user",
    "methods": {},
    "version": 1
  }
}