{
  "contractName": "DEX",
  "abi": [
    {
      "inputs": [
        {
          "internalType": "address",
          "name": "token1Address",
          "type": "address"
        },
        {
          "internalType": "address",
          "name": "token2Address",
          "type": "address"
        }
      ],
      "stateMutability": "nonpayable",
      "type": "constructor"
    },
    {
      "anonymous": false,
      "inputs": [
        {
          "indexed": true,
          "internalType": "address",
          "name": "provider",
          "type": "address"
        },
        {
          "indexed": false,
          "internalType": "uint256",
          "name": "token1Amount",
          "type": "uint256"
        },
        {
          "indexed": false,
          "internalType": "uint256",
          "name": "token2Amount",
          "type": "uint256"
        }
      ],
      "name": "LiquidityProvided",
      "type": "event"
    },
    {
      "anonymous": false,
      "inputs": [
        {
          "indexed": true,
          "internalType": "address",
          "name": "provider",
          "type": "address"
        },
        {
          "indexed": false,
          "internalType": "uint256",
          "name": "token1Amount",
          "type": "uint256"
        },
        {
          "indexed": false,
          "internalType": "uint256",
          "name": "token2Amount",
          "type": "uint256"
        }
      ],
      "name": "LiquidityRemoved",
      "type": "event"
    },
    {
      "anonymous": false,
      "inputs": [
        {
          "indexed": true,
          "internalType": "address",
          "name": "buyer",
          "type": "address"
        },
        {
          "indexed": false,
          "internalType": "uint256",
          "name": "token2Sold",
          "type": "uint256"
        },
        {
          "indexed": false,
          "internalType": "uint256",
          "name": "token1Bought",
          "type": "uint256"
        }
      ],
      "name": "Token1Purchase",
      "type": "event"
    },
    {
      "anonymous": false,
      "inputs": [
        {
          "indexed": true,
          "internalType": "address",
          "name": "buyer",
          "type": "address"
        },
        {
          "indexed": false,
          "internalType": "uint256",
          "name": "token1Sold",
          "type": "uint256"
        },
        {
          "indexed": false,
          "internalType": "uint256",
          "name": "token2Bought",
          "type": "uint256"
        }
      ],
      "name": "Token2Purchase",
      "type": "event"
    },
    {
      "inputs": [],
      "name": "feeBasisPoints",
      "outputs": [
        {
          "internalType": "uint256",
          "name": "",
          "type": "uint256"
        }
      ],
      "stateMutability": "view",
      "type": "function",
      "constant": true
    },
    {
      "inputs": [
        {
          "internalType": "address",
          "name": "",
          "type": "address"
        }
      ],
      "name": "liquidity",
      "outputs": [
        {
          "internalType": "uint256",
          "name": "",
          "type": "uint256"
        }
      ],
      "stateMutability": "view",
      "type": "function",
      "constant": true
    },
    {
      "inputs": [],
      "name": "myToken1",
      "outputs": [
        {
          "internalType": "contract IERC20",
          "name": "",
          "type": "address"
        }
      ],
      "stateMutability": "view",
      "type": "function",
      "constant": true
    },
    {
      "inputs": [],
      "name": "myToken2",
      "outputs": [
        {
          "internalType": "contract IERC20",
          "name": "",
          "type": "address"
        }
      ],
      "stateMutability": "view",
      "type": "function",
      "constant": true
    },
    {
      "inputs": [],
      "name": "totalLiquidity",
      "outputs": [
        {
          "internalType": "uint256",
          "name": "",
          "type": "uint256"
        }
      ],
      "stateMutability": "view",
      "type": "function",
      "constant": true
    },
    {
      "inputs": [
        {
          "internalType": "uint256",
          "name": "token1Amount",
          "type": "uint256"
        },
        {
          "internalType": "uint256",
          "name": "token2Amount",
          "type": "uint256"
        }
      ],
      "name": "initPool",
      "outputs": [],
      "stateMutability": "nonpayable",
      "type": "function"
    },
    {
      "inputs": [
        {
          "internalType": "uint256",
          "name": "inputAmount",
          "type": "uint256"
        },
        {
          "internalType": "uint256",
          "name": "inputReserve",
          "type": "uint256"
        },
        {
          "internalType": "uint256",
          "name": "outputReserve",
          "type": "uint256"
        }
      ],
      "name": "getPrice",
      "outputs": [
        {
          "internalType": "uint256",
          "name": "",
          "type": "uint256"
        }
      ],
      "stateMutability": "pure",
      "type": "function",
      "constant": true
    },
    {
      "inputs": [
        {
          "internalType": "uint256",
          "name": "token1Sold",
          "type": "uint256"
        }
      ],
      "name": "token1ToToken2Swap",
      "outputs": [],
      "stateMutability": "nonpayable",
      "type": "function"
    },
    {
      "inputs": [
        {
          "internalType": "uint256",
          "name": "token2Sold",
          "type": "uint256"
        }
      ],
      "name": "token2ToToken1Swap",
      "outputs": [],
      "stateMutability": "nonpayable",
      "type": "function"
    },
    {
      "inputs": [
        {
          "internalType": "uint256",
          "name": "token1Amount",
          "type": "uint256"
        },
        {
          "internalType": "uint256",
          "name": "token2Amount",
          "type": "uint256"
        }
      ],
      "name": "provideLiquidity",
      "outputs": [],
      "stateMutability": "nonpayable",
      "type": "function"
    },
    {
      "inputs": [
        {
          "internalType": "uint256",
          "name": "token1Amount",
          "type": "uint256"
        }
      ],
      "name": "provideLiquidityWithToken1",
      "outputs": [],
      "stateMutability": "nonpayable",
      "type": "function"
    },
    {
      "inputs": [
        {
          "internalType": "uint256",
          "name": "token2Amount",
          "type": "uint256"
        }
      ],
      "name": "provideLiquidityWithToken2",
      "outputs": [],
      "stateMutability": "nonpayable",
      "type": "function"
    },
    {
      "inputs": [
        {
          "internalType": "uint256",
          "name": "liquidityAmount",
          "type": "uint256"
        }
      ],
      "name": "removeLiquidity",
      "outputs": [],
      "stateMutability": "nonpayable",
      "type": "function"
    },
    {
      "inputs": [
        {
          "internalType": "address",
          "name": "provider",
          "type": "address"
        }
      ],
      "name": "getLiquidity",
      "outputs": [
        {
          "internalType": "uint256",
          "name": "",
          "type": "uint256"
        }
      ],
      "stateMutability": "view",
      "type": "function",
      "constant": true
    },
    {
      "inputs": [],
      "name": "getToken1Balance",
      "outputs": [
        {
          "internalType": "uint256",
          "name": "",
          "type": "uint256"
        }
      ],
      "stateMutability": "view",
      "type": "function",
      "constant": true
    },
    {
      "inputs": [],
      "name": "getToken2Balance",
      "outputs": [
        {
          "internalType": "uint256",
          "name": "",
          "type": "uint256"
        }
      ],
      "stateMutability": "view",
      "type": "function",
      "constant": true
    },
    {
      "inputs": [
        {
          "internalType": "uint256",
          "name": "newFeeBasisPoints",
          "type": "uint256"
        }
      ],
      "name": "setFee",
      "outputs": [],
      "stateMutability": "nonpayable",
      "type": "function"
    }
  ],
  "bytecode": "0x608060405260036004553480156200001657600080fd5b5060405162002bc138038062002bc183398181016040528101906200003c91906200012f565b816000806101000a81548173ffffffffffffffffffffffffffffffffffffffff021916908373ffffffffffffffffffffffffffffffffffffffff16021790555080600160006101000a81548173ffffffffffffffffffffffffffffffffffffffff021916908373ffffffffffffffffffffffffffffffffffffffff160217905550505062000176565b600080fd5b600073ffffffffffffffffffffffffffffffffffffffff82169050919050565b6000620000f782620000ca565b9050919050565b6200010981620000ea565b81146200011557600080fd5b50565b6000815190506200012981620000fe565b92915050565b60008060408385031215620001495762000148620000c5565b5b6000620001598582860162000118565b92505060206200016c8582860162000118565b9150509250929050565b612a3b80620001866000396000f3fe608060405234801561001057600080fd5b506004361061010b5760003560e01c80639c8f9f23116100a2578063b8c876b111610071578063b8c876b114610292578063df227590146102c2578063e0130017146102de578063e4ce9b94146102fa578063eb1efe0a146103165761010b565b80639c8f9f231461020c5780639e1b004514610228578063a747b93b14610244578063b8606eef146102745761010b565b806375d9a670116100de57806375d9a670146101985780637a16af7f146101b45780637f07de74146101d0578063801ea6ec146101ee5761010b565b806315770f92146101105780633cc4ecab1461012e5780635153786b1461015e57806369fe0e2d1461017c575b600080fd5b610118610334565b60405161012591906121f0565b60405180910390f35b6101486004803603810190610143919061223c565b61033a565b60405161015591906121f0565b60405180910390f35b61016661037c565b60405161017391906121f0565b60405180910390f35b6101966004803603810190610191919061228f565b61041e565b005b6101b260048036038101906101ad919061228f565b61046c565b005b6101ce60048036038101906101c991906122bc565b6108b0565b005b6101d8610d94565b6040516101e5919061237b565b60405180910390f35b6101f6610dba565b60405161020391906121f0565b60405180910390f35b6102266004803603810190610221919061228f565b610e5d565b005b610242600480360381019061023d91906122bc565b611336565b005b61025e600480360381019061025991906123d4565b61159e565b60405161026b91906121f0565b60405180910390f35b61027c6115e7565b60405161028991906121f0565b60405180910390f35b6102ac60048036038101906102a791906123d4565b6115ed565b6040516102b991906121f0565b60405180910390f35b6102dc60048036038101906102d7919061228f565b611605565b005b6102f860048036038101906102f3919061228f565b61196e565b005b610314600480360381019061030f919061228f565b611db2565b005b61031e61211c565b60405161032b919061237b565b60405180910390f35b60025481565b6000610373610352858561214090919063ffffffff16565b610365848761215690919063ffffffff16565b61216c90919063ffffffff16565b90509392505050565b60008060009054906101000a900473ffffffffffffffffffffffffffffffffffffffff1673ffffffffffffffffffffffffffffffffffffffff166370a08231306040518263ffffffff1660e01b81526004016103d89190612410565b602060405180830381865afa1580156103f5573d6000803e3d6000fd5b505050506040513d601f19601f820116820180604052508101906104199190612440565b905090565b6032811115610462576040517f08c379a0000000000000000000000000000000000000000000000000000000008152600401610459906124ca565b60405180910390fd5b8060048190555050565b60008060009054906101000a900473ffffffffffffffffffffffffffffffffffffffff1673ffffffffffffffffffffffffffffffffffffffff166370a08231306040518263ffffffff1660e01b81526004016104c89190612410565b602060405180830381865afa1580156104e5573d6000803e3d6000fd5b505050506040513d601f19601f820116820180604052508101906105099190612440565b90506000600160009054906101000a900473ffffffffffffffffffffffffffffffffffffffff1673ffffffffffffffffffffffffffffffffffffffff166370a08231306040518263ffffffff1660e01b81526004016105689190612410565b602060405180830381865afa158015610585573d6000803e3d6000fd5b505050506040513d601f19601f820116820180604052508101906105a99190612440565b90506000821180156105bb5750600081115b6105fa576040517f08c379a00000000000000000000000000000000000000000000000000000000081526004016105f190612536565b60405180910390fd5b60008183856106099190612585565b61061391906125f6565b905060008054906101000a900473ffffffffffffffffffffffffffffffffffffffff1673ffffffffffffffffffffffffffffffffffffffff166323b872dd3330846040518463ffffffff1660e01b815260040161067293929190612627565b6020604051808303816000875af1158015610691573d6000803e3d6000fd5b505050506040513d601f19601f820116820180604052508101906106b59190612696565b6106f4576040517f08c379a00000000000000000000000000000000000000000000000000000000081526004016106eb9061270f565b60405180910390fd5b600160009054906101000a900473ffffffffffffffffffffffffffffffffffffffff1673ffffffffffffffffffffffffffffffffffffffff166323b872dd3330876040518463ffffffff1660e01b815260040161075393929190612627565b6020604051808303816000875af1158015610772573d6000803e3d6000fd5b505050506040513d601f19601f820116820180604052508101906107969190612696565b6107d5576040517f08c379a00000000000000000000000000000000000000000000000000000000081526004016107cc9061277b565b60405180910390fd5b83816107e1919061279b565b600360003373ffffffffffffffffffffffffffffffffffffffff1673ffffffffffffffffffffffffffffffffffffffff168152602001908152602001600020600082825461082f919061279b565b925050819055508381610842919061279b565b60026000828254610853919061279b565b925050819055503373ffffffffffffffffffffffffffffffffffffffff167f4da600077ef1c533c6fc47d886b74f8eb10195c987edfc00c907a2e184a0279482866040516108a29291906127cf565b60405180910390a250505050565b6000821180156108c05750600081115b6108ff576040517f08c379a00000000000000000000000000000000000000000000000000000000081526004016108f690612844565b60405180910390fd5b60008060009054906101000a900473ffffffffffffffffffffffffffffffffffffffff1673ffffffffffffffffffffffffffffffffffffffff166370a08231306040518263ffffffff1660e01b815260040161095b9190612410565b602060405180830381865afa158015610978573d6000803e3d6000fd5b505050506040513d601f19601f8201168201806040525081019061099c9190612440565b90506000600160009054906101000a900473ffffffffffffffffffffffffffffffffffffffff1673ffffffffffffffffffffffffffffffffffffffff166370a08231306040518263ffffffff1660e01b81526004016109fb9190612410565b602060405180830381865afa158015610a18573d6000803e3d6000fd5b505050506040513d601f19601f82011682018060405250810190610a3c9190612440565b90506000610a6583610a57848861215690919063ffffffff16565b61216c90919063ffffffff16565b9050808414610aa9576040517f08c379a0000000000000000000000000000000000000000000000000000000008152600401610aa0906128b0565b60405180910390fd5b60008054906101000a900473ffffffffffffffffffffffffffffffffffffffff1673ffffffffffffffffffffffffffffffffffffffff166323b872dd3330886040518463ffffffff1660e01b8152600401610b0693929190612627565b6020604051808303816000875af1158015610b25573d6000803e3d6000fd5b505050506040513d601f19601f82011682018060405250810190610b499190612696565b610b88576040517f08c379a0000000000000000000000000000000000000000000000000000000008152600401610b7f9061270f565b60405180910390fd5b600160009054906101000a900473ffffffffffffffffffffffffffffffffffffffff1673ffffffffffffffffffffffffffffffffffffffff166323b872dd3330876040518463ffffffff1660e01b8152600401610be793929190612627565b6020604051808303816000875af1158015610c06573d6000803e3d6000fd5b505050506040513d601f19601f82011682018060405250810190610c2a9190612696565b610c69576040517f08c379a0000000000000000000000000000000000000000000000000000000008152600401610c609061277b565b60405180910390fd5b610ccd610c7f858761214090919063ffffffff16565b600360003373ffffffffffffffffffffffffffffffffffffffff1673ffffffffffffffffffffffffffffffffffffffff1681526020019081526020016000205461214090919063ffffffff16565b600360003373ffffffffffffffffffffffffffffffffffffffff1673ffffffffffffffffffffffffffffffffffffffff16815260200190815260200160002081905550610d37610d26858761214090919063ffffffff16565b60025461214090919063ffffffff16565b6002819055503373ffffffffffffffffffffffffffffffffffffffff167f4da600077ef1c533c6fc47d886b74f8eb10195c987edfc00c907a2e184a027948686604051610d859291906127cf565b60405180910390a25050505050565b600160009054906101000a900473ffffffffffffffffffffffffffffffffffffffff1681565b6000600160009054906101000a900473ffffffffffffffffffffffffffffffffffffffff1673ffffffffffffffffffffffffffffffffffffffff166370a08231306040518263ffffffff1660e01b8152600401610e179190612410565b602060405180830381865afa158015610e34573d6000803e3d6000fd5b505050506040513d601f19601f82011682018060405250810190610e589190612440565b905090565b600081118015610eac5750600360003373ffffffffffffffffffffffffffffffffffffffff1673ffffffffffffffffffffffffffffffffffffffff168152602001908152602001600020548111155b610eeb576040517f08c379a0000000000000000000000000000000000000000000000000000000008152600401610ee29061291c565b60405180910390fd5b6000610fad600254610f9f60008054906101000a900473ffffffffffffffffffffffffffffffffffffffff1673ffffffffffffffffffffffffffffffffffffffff166370a08231306040518263ffffffff1660e01b8152600401610f4f9190612410565b602060405180830381865afa158015610f6c573d6000803e3d6000fd5b505050506040513d601f19601f82011682018060405250810190610f909190612440565b8561215690919063ffffffff16565b61216c90919063ffffffff16565b90506000611073600254611065600160009054906101000a900473ffffffffffffffffffffffffffffffffffffffff1673ffffffffffffffffffffffffffffffffffffffff166370a08231306040518263ffffffff1660e01b81526004016110159190612410565b602060405180830381865afa158015611032573d6000803e3d6000fd5b505050506040513d601f19601f820116820180604052508101906110569190612440565b8661215690919063ffffffff16565b61216c90919063ffffffff16565b90506110c783600360003373ffffffffffffffffffffffffffffffffffffffff1673ffffffffffffffffffffffffffffffffffffffff1681526020019081526020016000205461218290919063ffffffff16565b600360003373ffffffffffffffffffffffffffffffffffffffff1673ffffffffffffffffffffffffffffffffffffffff1681526020019081526020016000208190555061111f8360025461218290919063ffffffff16565b60028190555060008054906101000a900473ffffffffffffffffffffffffffffffffffffffff1673ffffffffffffffffffffffffffffffffffffffff1663a9059cbb33846040518363ffffffff1660e01b815260040161118092919061293c565b6020604051808303816000875af115801561119f573d6000803e3d6000fd5b505050506040513d601f19601f820116820180604052508101906111c39190612696565b611202576040517f08c379a00000000000000000000000000000000000000000000000000000000081526004016111f99061270f565b60405180910390fd5b600160009054906101000a900473ffffffffffffffffffffffffffffffffffffffff1673ffffffffffffffffffffffffffffffffffffffff1663a9059cbb33836040518363ffffffff1660e01b815260040161125f92919061293c565b6020604051808303816000875af115801561127e573d6000803e3d6000fd5b505050506040513d601f19601f820116820180604052508101906112a29190612696565b6112e1576040517f08c379a00000000000000000000000000000000000000000000000000000000081526004016112d89061277b565b60405180910390fd5b3373ffffffffffffffffffffffffffffffffffffffff167f96cd817c6329656790ef8fba7675405193677d39619571282f5e21f3a98cd05983836040516113299291906127cf565b60405180910390a2505050565b60006002541461137b576040517f08c379a0000000000000000000000000000000000000000000000000000000008152600401611372906129b1565b60405180910390fd5b61138e818361214090919063ffffffff16565b600281905550600254600360003373ffffffffffffffffffffffffffffffffffffffff1673ffffffffffffffffffffffffffffffffffffffff1681526020019081526020016000208190555060008054906101000a900473ffffffffffffffffffffffffffffffffffffffff1673ffffffffffffffffffffffffffffffffffffffff166323b872dd3330856040518463ffffffff1660e01b815260040161143793929190612627565b6020604051808303816000875af1158015611456573d6000803e3d6000fd5b505050506040513d601f19601f8201168201806040525081019061147a9190612696565b6114b9576040517f08c379a00000000000000000000000000000000000000000000000000000000081526004016114b09061270f565b60405180910390fd5b600160009054906101000a900473ffffffffffffffffffffffffffffffffffffffff1673ffffffffffffffffffffffffffffffffffffffff166323b872dd3330846040518463ffffffff1660e01b815260040161151893929190612627565b6020604051808303816000875af1158015611537573d6000803e3d6000fd5b505050506040513d601f19601f8201168201806040525081019061155b9190612696565b61159a576040517f08c379a00000000000000000000000000000000000000000000000000000000081526004016115919061277b565b60405180910390fd5b5050565b6000600360008373ffffffffffffffffffffffffffffffffffffffff1673ffffffffffffffffffffffffffffffffffffffff168152602001908152602001600020549050919050565b60045481565b60036020528060005260406000206000915090505481565b6000600160009054906101000a900473ffffffffffffffffffffffffffffffffffffffff1673ffffffffffffffffffffffffffffffffffffffff166370a08231306040518263ffffffff1660e01b81526004016116629190612410565b602060405180830381865afa15801561167f573d6000803e3d6000fd5b505050506040513d601f19601f820116820180604052508101906116a39190612440565b9050600061174b8360008054906101000a900473ffffffffffffffffffffffffffffffffffffffff1673ffffffffffffffffffffffffffffffffffffffff166370a08231306040518263ffffffff1660e01b81526004016117049190612410565b602060405180830381865afa158015611721573d6000803e3d6000fd5b505050506040513d601f19601f820116820180604052508101906117459190612440565b8461033a565b9050600061175882612198565b905060008054906101000a900473ffffffffffffffffffffffffffffffffffffffff1673ffffffffffffffffffffffffffffffffffffffff166323b872dd3330876040518463ffffffff1660e01b81526004016117b793929190612627565b6020604051808303816000875af11580156117d6573d6000803e3d6000fd5b505050506040513d601f19601f820116820180604052508101906117fa9190612696565b611839576040517f08c379a00000000000000000000000000000000000000000000000000000000081526004016118309061270f565b60405180910390fd5b600160009054906101000a900473ffffffffffffffffffffffffffffffffffffffff1673ffffffffffffffffffffffffffffffffffffffff1663a9059cbb33836040518363ffffffff1660e01b815260040161189692919061293c565b6020604051808303816000875af11580156118b5573d6000803e3d6000fd5b505050506040513d601f19601f820116820180604052508101906118d99190612696565b611918576040517f08c379a000000000000000000000000000000000000000000000000000000000815260040161190f9061277b565b60405180910390fd5b3373ffffffffffffffffffffffffffffffffffffffff167fbfb7768e9221bdf45ed4aa13edd6b6d94a1307817b74212c4056e1f81a0760de85836040516119609291906127cf565b60405180910390a250505050565b60008060009054906101000a900473ffffffffffffffffffffffffffffffffffffffff1673ffffffffffffffffffffffffffffffffffffffff166370a08231306040518263ffffffff1660e01b81526004016119ca9190612410565b602060405180830381865afa1580156119e7573d6000803e3d6000fd5b505050506040513d601f19601f82011682018060405250810190611a0b9190612440565b90506000600160009054906101000a900473ffffffffffffffffffffffffffffffffffffffff1673ffffffffffffffffffffffffffffffffffffffff166370a08231306040518263ffffffff1660e01b8152600401611a6a9190612410565b602060405180830381865afa158015611a87573d6000803e3d6000fd5b505050506040513d601f19601f82011682018060405250810190611aab9190612440565b9050600082118015611abd5750600081115b611afc576040517f08c379a0000000000000000000000000000000000000000000000000000000008152600401611af390612536565b60405180910390fd5b6000828285611b0b9190612585565b611b1591906125f6565b905060008054906101000a900473ffffffffffffffffffffffffffffffffffffffff1673ffffffffffffffffffffffffffffffffffffffff166323b872dd3330876040518463ffffffff1660e01b8152600401611b7493929190612627565b6020604051808303816000875af1158015611b93573d6000803e3d6000fd5b505050506040513d601f19601f82011682018060405250810190611bb79190612696565b611bf6576040517f08c379a0000000000000000000000000000000000000000000000000000000008152600401611bed9061270f565b60405180910390fd5b600160009054906101000a900473ffffffffffffffffffffffffffffffffffffffff1673ffffffffffffffffffffffffffffffffffffffff166323b872dd3330846040518463ffffffff1660e01b8152600401611c5593929190612627565b6020604051808303816000875af1158015611c74573d6000803e3d6000fd5b505050506040513d601f19601f82011682018060405250810190611c989190612696565b611cd7576040517f08c379a0000000000000000000000000000000000000000000000000000000008152600401611cce9061277b565b60405180910390fd5b8084611ce3919061279b565b600360003373ffffffffffffffffffffffffffffffffffffffff1673ffffffffffffffffffffffffffffffffffffffff1681526020019081526020016000206000828254611d31919061279b565b925050819055508084611d44919061279b565b60026000828254611d55919061279b565b925050819055503373ffffffffffffffffffffffffffffffffffffffff167f4da600077ef1c533c6fc47d886b74f8eb10195c987edfc00c907a2e184a027948583604051611da49291906127cf565b60405180910390a250505050565b60008060009054906101000a900473ffffffffffffffffffffffffffffffffffffffff1673ffffffffffffffffffffffffffffffffffffffff166370a08231306040518263ffffffff1660e01b8152600401611e0e9190612410565b602060405180830381865afa158015611e2b573d6000803e3d6000fd5b505050506040513d601f19601f82011682018060405250810190611e4f9190612440565b90506000611ef983600160009054906101000a900473ffffffffffffffffffffffffffffffffffffffff1673ffffffffffffffffffffffffffffffffffffffff166370a08231306040518263ffffffff1660e01b8152600401611eb29190612410565b602060405180830381865afa158015611ecf573d6000803e3d6000fd5b505050506040513d601f19601f82011682018060405250810190611ef39190612440565b8461033a565b90506000611f0682612198565b9050600160009054906101000a900473ffffffffffffffffffffffffffffffffffffffff1673ffffffffffffffffffffffffffffffffffffffff166323b872dd3330876040518463ffffffff1660e01b8152600401611f6793929190612627565b6020604051808303816000875af1158015611f86573d6000803e3d6000fd5b505050506040513d601f19601f82011682018060405250810190611faa9190612696565b611fe9576040517f08c379a0000000000000000000000000000000000000000000000000000000008152600401611fe09061277b565b60405180910390fd5b60008054906101000a900473ffffffffffffffffffffffffffffffffffffffff1673ffffffffffffffffffffffffffffffffffffffff1663a9059cbb33836040518363ffffffff1660e01b815260040161204492919061293c565b6020604051808303816000875af1158015612063573d6000803e3d6000fd5b505050506040513d601f19601f820116820180604052508101906120879190612696565b6120c6576040517f08c379a00000000000000000000000000000000000000000000000000000000081526004016120bd9061270f565b60405180910390fd5b3373ffffffffffffffffffffffffffffffffffffffff167f636b441904cc4fae568410dec76a8e589caead58bc25415e199be8447ec13aa1858360405161210e9291906127cf565b60405180910390a250505050565b60008054906101000a900473ffffffffffffffffffffffffffffffffffffffff1681565b6000818361214e919061279b565b905092915050565b600081836121649190612585565b905092915050565b6000818361217a91906125f6565b905092915050565b6000818361219091906129d1565b905092915050565b60006121d06103e86121c26004546103e86121b391906129d1565b8561215690919063ffffffff16565b61216c90919063ffffffff16565b9050919050565b6000819050919050565b6121ea816121d7565b82525050565b600060208201905061220560008301846121e1565b92915050565b600080fd5b612219816121d7565b811461222457600080fd5b50565b60008135905061223681612210565b92915050565b6000806000606084860312156122555761225461220b565b5b600061226386828701612227565b935050602061227486828701612227565b925050604061228586828701612227565b9150509250925092565b6000602082840312156122a5576122a461220b565b5b60006122b384828501612227565b91505092915050565b600080604083850312156122d3576122d261220b565b5b60006122e185828601612227565b92505060206122f285828601612227565b9150509250929050565b600073ffffffffffffffffffffffffffffffffffffffff82169050919050565b6000819050919050565b600061234161233c612337846122fc565b61231c565b6122fc565b9050919050565b600061235382612326565b9050919050565b600061236582612348565b9050919050565b6123758161235a565b82525050565b6000602082019050612390600083018461236c565b92915050565b60006123a1826122fc565b9050919050565b6123b181612396565b81146123bc57600080fd5b50565b6000813590506123ce816123a8565b92915050565b6000602082840312156123ea576123e961220b565b5b60006123f8848285016123bf565b91505092915050565b61240a81612396565b82525050565b60006020820190506124256000830184612401565b92915050565b60008151905061243a81612210565b92915050565b6000602082840312156124565761245561220b565b5b60006124648482850161242b565b91505092915050565b600082825260208201905092915050565b7f46656520746f6f20686967680000000000000000000000000000000000000000600082015250565b60006124b4600c8361246d565b91506124bf8261247e565b602082019050919050565b600060208201905081810360008301526124e3816124a7565b9050919050565b7f506f6f6c206e6f7420696e697469616c697a6564000000000000000000000000600082015250565b600061252060148361246d565b915061252b826124ea565b602082019050919050565b6000602082019050818103600083015261254f81612513565b9050919050565b7f4e487b7100000000000000000000000000000000000000000000000000000000600052601160045260246000fd5b6000612590826121d7565b915061259b836121d7565b92508282026125a9816121d7565b915082820484148315176125c0576125bf612556565b5b5092915050565b7f4e487b7100000000000000000000000000000000000000000000000000000000600052601260045260246000fd5b6000612601826121d7565b915061260c836121d7565b92508261261c5761261b6125c7565b5b828204905092915050565b600060608201905061263c6000830186612401565b6126496020830185612401565b61265660408301846121e1565b949350505050565b60008115159050919050565b6126738161265e565b811461267e57600080fd5b50565b6000815190506126908161266a565b92915050565b6000602082840312156126ac576126ab61220b565b5b60006126ba84828501612681565b91505092915050565b7f546f6b656e31207472616e73666572206661696c656400000000000000000000600082015250565b60006126f960168361246d565b9150612704826126c3565b602082019050919050565b60006020820190508181036000830152612728816126ec565b9050919050565b7f546f6b656e32207472616e73666572206661696c656400000000000000000000600082015250565b600061276560168361246d565b91506127708261272f565b602082019050919050565b6000602082019050818103600083015261279481612758565b9050919050565b60006127a6826121d7565b91506127b1836121d7565b92508282019050808211156127c9576127c8612556565b5b92915050565b60006040820190506127e460008301856121e1565b6127f160208301846121e1565b9392505050565b7f496e76616c696420616d6f756e74730000000000000000000000000000000000600082015250565b600061282e600f8361246d565b9150612839826127f8565b602082019050919050565b6000602082019050818103600083015261285d81612821565b9050919050565b7f496e636f727265637420746f6b656e3220616d6f756e74000000000000000000600082015250565b600061289a60178361246d565b91506128a582612864565b602082019050919050565b600060208201905081810360008301526128c98161288d565b9050919050565b7f496e76616c6964206c697175696469747920616d6f756e740000000000000000600082015250565b600061290660188361246d565b9150612911826128d0565b602082019050919050565b60006020820190508181036000830152612935816128f9565b9050919050565b60006040820190506129516000830185612401565b61295e60208301846121e1565b9392505050565b7f506f6f6c20616c726561647920696e697469616c697a65640000000000000000600082015250565b600061299b60188361246d565b91506129a682612965565b602082019050919050565b600060208201905081810360008301526129ca8161298e565b9050919050565b60006129dc826121d7565b91506129e7836121d7565b92508282039050818111156129ff576129fe612556565b5b9291505056fea2646970667358221220e97e85cad5d7e2667c90d8f45b8a2f09c046cddd36427867d04bc593fced5eeb64736f6c63430008130033",
  "immutableReferences": {},
  "source": "// SPDX-License-Identifier: MIT\r\npragma solidity ^0.8.19;\r\n\r\nimport \"@openzeppelin/contracts/token/ERC20/IERC20.sol\";\r\nimport \"@openzeppelin/contracts/utils/math/SafeMath.sol\";\r\n\r\ncontract DEX {\r\n    using SafeMath for uint256;\r\n\r\n    IERC20 public myToken1;\r\n    IERC20 public myToken2;\r\n    \r\n    uint256 public totalLiquidity;\r\n    mapping(address => uint256) public liquidity;\r\n    uint256 public feeBasisPoints = 3; // feeBasisPoints chia cho 1000  ra %(3 tng ng vi 0.3%)\r\n\r\n    event Token1Purchase(address indexed buyer, uint256 token2Sold, uint256 token1Bought);\r\n    event Token2Purchase(address indexed buyer, uint256 token1Sold, uint256 token2Bought);\r\n    event LiquidityProvided(address indexed provider, uint256 token1Amount, uint256 token2Amount);\r\n    event LiquidityRemoved(address indexed provider, uint256 token1Amount, uint256 token2Amount);\r\n\r\n    constructor(address token1Address, address token2Address) {\r\n        myToken1 = IERC20(token1Address);\r\n        myToken2 = IERC20(token2Address);\r\n    }\r\n\r\n    // Khi to pool vi lng token1 v token2 ban u\r\n    function initPool(uint256 token1Amount, uint256 token2Amount) public {\r\n        require(totalLiquidity == 0, \"Pool already initialized\");\r\n        \r\n        totalLiquidity = token1Amount.add(token2Amount);\r\n        liquidity[msg.sender] = totalLiquidity;\r\n        \r\n        require(myToken1.transferFrom(msg.sender, address(this), token1Amount), \"Token1 transfer failed\");\r\n        require(myToken2.transferFrom(msg.sender, address(this), token2Amount), \"Token2 transfer failed\");\r\n    }\r\n\r\n    // Hm tnh gi theo cng thc AMM\r\n    function getPrice(uint256 inputAmount, uint256 inputReserve, uint256 outputReserve) public pure returns (uint256) {\r\n        return (inputAmount.mul(outputReserve)).div(inputReserve.add(inputAmount));\r\n    }\r\n\r\n    // Tnh ph\r\n    function applyFee(uint256 amount) internal view returns (uint256) {\r\n        return amount.mul(1000 - feeBasisPoints).div(1000);\r\n    }\r\n\r\n    // Giao dch t token1 sang token2\r\n    function token1ToToken2Swap(uint256 token1Sold) public {\r\n        uint256 token2Reserve = myToken2.balanceOf(address(this));\r\n        uint256 token2Bought = getPrice(token1Sold, myToken1.balanceOf(address(this)), token2Reserve);\r\n        uint256 token2AfterFee = applyFee(token2Bought); // Tr ph giao dch\r\n\r\n        require(myToken1.transferFrom(msg.sender, address(this), token1Sold), \"Token1 transfer failed\");\r\n        require(myToken2.transfer(msg.sender, token2AfterFee), \"Token2 transfer failed\");\r\n\r\n        emit Token1Purchase(msg.sender, token1Sold, token2AfterFee);\r\n    }\r\n\r\n    // Giao dch t token2 sang token1\r\n    function token2ToToken1Swap(uint256 token2Sold) public {\r\n        uint256 token1Reserve = myToken1.balanceOf(address(this));\r\n        uint256 token1Bought = getPrice(token2Sold, myToken2.balanceOf(address(this)), token1Reserve);\r\n        uint256 token1AfterFee = applyFee(token1Bought); // Tr ph giao dch\r\n\r\n        require(myToken2.transferFrom(msg.sender, address(this), token2Sold), \"Token2 transfer failed\");\r\n        require(myToken1.transfer(msg.sender, token1AfterFee), \"Token1 transfer failed\");\r\n\r\n        emit Token2Purchase(msg.sender, token2Sold, token1AfterFee);\r\n    }\r\n\r\n    // Cung cp thanh khon cho pool\r\n    function provideLiquidity(uint256 token1Amount, uint256 token2Amount) public {\r\n        require(token1Amount > 0 && token2Amount > 0, \"Invalid amounts\");\r\n\r\n        uint256 token1Reserve = myToken1.balanceOf(address(this));\r\n        uint256 token2Reserve = myToken2.balanceOf(address(this));\r\n\r\n        uint256 token2AmountRequired = (token1Amount.mul(token2Reserve)).div(token1Reserve);\r\n        require(token2Amount == token2AmountRequired, \"Incorrect token2 amount\");\r\n\r\n        require(myToken1.transferFrom(msg.sender, address(this), token1Amount), \"Token1 transfer failed\");\r\n        require(myToken2.transferFrom(msg.sender, address(this), token2Amount), \"Token2 transfer failed\");\r\n\r\n        liquidity[msg.sender] = liquidity[msg.sender].add(token1Amount.add(token2Amount));\r\n        totalLiquidity = totalLiquidity.add(token1Amount.add(token2Amount));\r\n\r\n        emit LiquidityProvided(msg.sender, token1Amount, token2Amount);\r\n    }\r\n\r\n    // Ngi dng ch nhp token1Amount, DEX t tnh token2Amount\r\n    function provideLiquidityWithToken1(uint256 token1Amount) public {\r\n        uint256 token1Reserve = myToken1.balanceOf(address(this));\r\n        uint256 token2Reserve = myToken2.balanceOf(address(this));\r\n\r\n        require(token1Reserve > 0 && token2Reserve > 0, \"Pool not initialized\");\r\n\r\n        uint256 token2AmountRequired = (token1Amount * token2Reserve) / token1Reserve;\r\n\r\n        require(myToken1.transferFrom(msg.sender, address(this), token1Amount), \"Token1 transfer failed\");\r\n        require(myToken2.transferFrom(msg.sender, address(this), token2AmountRequired), \"Token2 transfer failed\");\r\n\r\n        liquidity[msg.sender] += token1Amount + token2AmountRequired;\r\n        totalLiquidity += token1Amount + token2AmountRequired;\r\n\r\n        emit LiquidityProvided(msg.sender, token1Amount, token2AmountRequired);\r\n    }\r\n\r\n    // Ngi dng ch nhp token2Amount, DEX t tnh token1Amount\r\n    function provideLiquidityWithToken2(uint256 token2Amount) public {\r\n        uint256 token1Reserve = myToken1.balanceOf(address(this));\r\n        uint256 token2Reserve = myToken2.balanceOf(address(this));\r\n\r\n        require(token1Reserve > 0 && token2Reserve > 0, \"Pool not initialized\");\r\n\r\n        uint256 token1AmountRequired = (token2Amount * token1Reserve) / token2Reserve;\r\n\r\n        require(myToken1.transferFrom(msg.sender, address(this), token1AmountRequired), \"Token1 transfer failed\");\r\n        require(myToken2.transferFrom(msg.sender, address(this), token2Amount), \"Token2 transfer failed\");\r\n\r\n        liquidity[msg.sender] += token1AmountRequired + token2Amount;\r\n        totalLiquidity += token1AmountRequired + token2Amount;\r\n\r\n        emit LiquidityProvided(msg.sender, token1AmountRequired, token2Amount);\r\n    }\r\n\r\n\r\n    // Rt thanh khon t pool\r\n    function removeLiquidity(uint256 liquidityAmount) public {\r\n        require(liquidityAmount > 0 && liquidityAmount <= liquidity[msg.sender], \"Invalid liquidity amount\");\r\n\r\n        uint256 token1Amount = (liquidityAmount.mul(myToken1.balanceOf(address(this)))).div(totalLiquidity);\r\n        uint256 token2Amount = (liquidityAmount.mul(myToken2.balanceOf(address(this)))).div(totalLiquidity);\r\n\r\n        liquidity[msg.sender] = liquidity[msg.sender].sub(liquidityAmount);\r\n        totalLiquidity = totalLiquidity.sub(liquidityAmount);\r\n\r\n        require(myToken1.transfer(msg.sender, token1Amount), \"Token1 transfer failed\");\r\n        require(myToken2.transfer(msg.sender, token2Amount), \"Token2 transfer failed\");\r\n\r\n        emit LiquidityRemoved(msg.sender, token1Amount, token2Amount);\r\n    }\r\n\r\n    // Kim tra s d thanh khon ca ngi dng\r\n    function getLiquidity(address provider) public view returns (uint256) {\r\n        return liquidity[provider];\r\n    }\r\n\r\n    // Kim tra s d ca token1 v token2 trong hp ng\r\n    function getToken1Balance() public view returns (uint256) {\r\n        return myToken1.balanceOf(address(this));\r\n    }\r\n\r\n    function getToken2Balance() public view returns (uint256) {\r\n        return myToken2.balanceOf(address(this));\r\n    }\r\n\r\n    function setFee(uint256 newFeeBasisPoints) public {\r\n        require(newFeeBasisPoints <= 50, \"Fee too high\"); // Gii hn ti a 5%\r\n        feeBasisPoints = newFeeBasisPoints;\r\n    }\r\n}\r\n",
  "sourcePath": "C:\\Ethereum\\MyToken\\contracts\\DEX.sol",
  "compiler": {
    "name": "solc",
    "version": "0.8.19+commit.7dd6d404.Emscripten.clang"
  },
  "schemaVersion": "3.4.16",
  "updatedAt": "2025-02-17T16:31:08.718Z",
  "networkType": "ethereum",
  "devdoc": {
    "kind": "dev",
    "methods": {},
    "version": 1
  },
  "userdoc": {
    "kind": "user",
    "methods": {},
    "version": 1
  }
}